{
  "address": "0x9fE46736679d2D9a65F0992F2272dE9f3c7fa6e0",
  "abi": [
    {
      "inputs": [
        {
          "internalType": "address",
          "name": "_tokenAddress",
          "type": "address"
        },
        {
          "internalType": "address",
          "name": "_nftAddress",
          "type": "address"
        }
      ],
      "stateMutability": "nonpayable",
      "type": "constructor"
    },
    {
      "anonymous": false,
      "inputs": [
        {
          "indexed": false,
          "internalType": "uint256",
          "name": "id",
          "type": "uint256"
        },
        {
          "indexed": false,
          "internalType": "string",
          "name": "hash",
          "type": "string"
        },
        {
          "indexed": false,
          "internalType": "string",
          "name": "title",
          "type": "string"
        },
        {
          "indexed": false,
          "internalType": "uint256",
          "name": "tipAmount",
          "type": "uint256"
        },
        {
          "indexed": false,
          "internalType": "address payable",
          "name": "author",
          "type": "address"
        }
      ],
      "name": "ImageTipped",
      "type": "event"
    },
    {
      "anonymous": false,
      "inputs": [
        {
          "indexed": false,
          "internalType": "uint256",
          "name": "id",
          "type": "uint256"
        },
        {
          "indexed": false,
          "internalType": "string",
          "name": "hash",
          "type": "string"
        },
        {
          "indexed": false,
          "internalType": "string",
          "name": "title",
          "type": "string"
        },
        {
          "indexed": false,
          "internalType": "uint256",
          "name": "tipAmount",
          "type": "uint256"
        },
        {
          "indexed": false,
          "internalType": "address payable",
          "name": "author",
          "type": "address"
        }
      ],
      "name": "ImageTippedByDPXT",
      "type": "event"
    },
    {
      "anonymous": false,
      "inputs": [
        {
          "indexed": true,
          "internalType": "address",
          "name": "previousOwner",
          "type": "address"
        },
        {
          "indexed": true,
          "internalType": "address",
          "name": "newOwner",
          "type": "address"
        }
      ],
      "name": "OwnershipTransferred",
      "type": "event"
    },
    {
      "anonymous": false,
      "inputs": [
        {
          "indexed": false,
          "internalType": "uint256",
          "name": "id",
          "type": "uint256"
        },
        {
          "indexed": false,
          "internalType": "string",
          "name": "hash",
          "type": "string"
        },
        {
          "indexed": false,
          "internalType": "string",
          "name": "title",
          "type": "string"
        },
        {
          "indexed": false,
          "internalType": "address payable",
          "name": "author",
          "type": "address"
        }
      ],
      "name": "PictureCreated",
      "type": "event"
    },
    {
      "inputs": [
        {
          "internalType": "string",
          "name": "_hash",
          "type": "string"
        },
        {
          "internalType": "string",
          "name": "_title",
          "type": "string"
        },
        {
          "internalType": "string",
          "name": "_tokenURI",
          "type": "string"
        }
      ],
      "name": "addPicture",
      "outputs": [],
      "stateMutability": "nonpayable",
      "type": "function"
    },
    {
      "inputs": [
        {
          "internalType": "uint256",
          "name": "_id",
          "type": "uint256"
        }
      ],
      "name": "buyNFT",
      "outputs": [],
      "stateMutability": "nonpayable",
      "type": "function"
    },
    {
      "inputs": [],
      "name": "dpixNFT",
      "outputs": [
        {
          "internalType": "contract DPixNFT",
          "name": "",
          "type": "address"
        }
      ],
      "stateMutability": "view",
      "type": "function"
    },
    {
      "inputs": [],
      "name": "dpixToken",
      "outputs": [
        {
          "internalType": "contract DPixToken",
          "name": "",
          "type": "address"
        }
      ],
      "stateMutability": "view",
      "type": "function"
    },
    {
      "inputs": [
        {
          "internalType": "string",
          "name": "",
          "type": "string"
        }
      ],
      "name": "hashAuthorMap",
      "outputs": [
        {
          "internalType": "address",
          "name": "",
          "type": "address"
        }
      ],
      "stateMutability": "view",
      "type": "function"
    },
    {
      "inputs": [],
      "name": "name",
      "outputs": [
        {
          "internalType": "string",
          "name": "",
          "type": "string"
        }
      ],
      "stateMutability": "view",
      "type": "function"
    },
    {
      "inputs": [],
      "name": "owner",
      "outputs": [
        {
          "internalType": "address",
          "name": "",
          "type": "address"
        }
      ],
      "stateMutability": "view",
      "type": "function"
    },
    {
      "inputs": [],
      "name": "pictureCount",
      "outputs": [
        {
          "internalType": "uint256",
          "name": "",
          "type": "uint256"
        }
      ],
      "stateMutability": "view",
      "type": "function"
    },
    {
      "inputs": [
        {
          "internalType": "uint256",
          "name": "",
          "type": "uint256"
        }
      ],
      "name": "pictures",
      "outputs": [
        {
          "internalType": "uint256",
          "name": "id",
          "type": "uint256"
        },
        {
          "internalType": "string",
          "name": "hash",
          "type": "string"
        },
        {
          "internalType": "string",
          "name": "title",
          "type": "string"
        },
        {
          "internalType": "address payable",
          "name": "author",
          "type": "address"
        }
      ],
      "stateMutability": "view",
      "type": "function"
    },
    {
      "inputs": [
        {
          "internalType": "uint256",
          "name": "",
          "type": "uint256"
        }
      ],
      "name": "price",
      "outputs": [
        {
          "internalType": "uint256",
          "name": "",
          "type": "uint256"
        }
      ],
      "stateMutability": "view",
      "type": "function"
    },
    {
      "inputs": [],
      "name": "renounceOwnership",
      "outputs": [],
      "stateMutability": "nonpayable",
      "type": "function"
    },
    {
      "inputs": [
        {
          "internalType": "address",
          "name": "_nftAddress",
          "type": "address"
        }
      ],
      "name": "setDPixNftAddress",
      "outputs": [],
      "stateMutability": "nonpayable",
      "type": "function"
    },
    {
      "inputs": [
        {
          "internalType": "uint256",
          "name": "_id",
          "type": "uint256"
        },
        {
          "internalType": "uint256",
          "name": "_price",
          "type": "uint256"
        }
      ],
      "name": "setPrice",
      "outputs": [],
      "stateMutability": "nonpayable",
      "type": "function"
    },
    {
      "inputs": [
        {
          "internalType": "uint256",
          "name": "_id",
          "type": "uint256"
        }
      ],
      "name": "tipPictureOwner",
      "outputs": [],
      "stateMutability": "payable",
      "type": "function"
    },
    {
      "inputs": [
        {
          "internalType": "uint256",
          "name": "_id",
          "type": "uint256"
        },
        {
          "internalType": "uint256",
          "name": "_value",
          "type": "uint256"
        }
      ],
      "name": "tipPictureOwnerByDPixToken",
      "outputs": [],
      "stateMutability": "nonpayable",
      "type": "function"
    },
    {
      "inputs": [
        {
          "internalType": "address",
          "name": "newOwner",
          "type": "address"
        }
      ],
      "name": "transferOwnership",
      "outputs": [],
      "stateMutability": "nonpayable",
      "type": "function"
    }
  ],
  "transactionHash": "0x779aa5ed098a671446036934bd6b63e7a8e009aa3bc0699fa52198e3ae61f490",
  "args": [
    "0x5FbDB2315678afecb367f032d93F642f64180aa3",
    "0xe7f1725E7734CE288F8367e1Bb143E90bb3F0512"
  ],
  "solcInputHash": "4290cf8d20916f13a3bce7e0a3cc9470",
  "bytecode": "0x600060015560c06040526004608081905263088a0d2f60e31b60a09081526200002c9160029190620000f7565b503480156200003a57600080fd5b5060405162001695380380620016958339810160408190526200005d91620001ba565b620000716200006b620000a3565b620000a7565b600680546001600160a01b039384166001600160a01b031991821617909155600780549290931691161790556200022e565b3390565b600080546001600160a01b038381166001600160a01b0319831681178455604051919092169283917f8be0079c531659141344cd1fd0a4f28419497f9722a3daafe3b4186f6b6457e09190a35050565b8280546200010590620001f1565b90600052602060002090601f01602090048101928262000129576000855562000174565b82601f106200014457805160ff191683800117855562000174565b8280016001018555821562000174579182015b828111156200017457825182559160200191906001019062000157565b506200018292915062000186565b5090565b5b8082111562000182576000815560010162000187565b80516001600160a01b0381168114620001b557600080fd5b919050565b60008060408385031215620001cd578182fd5b620001d8836200019d565b9150620001e8602084016200019d565b90509250929050565b6002810460018216806200020657607f821691505b602082108114156200022857634e487b7160e01b600052602260045260246000fd5b50919050565b611457806200023e6000396000f3fe6080604052600436106100d35760003560e01c8063715018a61161007a578063715018a6146101ec5780637b2948ba1461020157806389b7e978146102215780638da5cb5b146102365780639efe54a61461024b578063cff2e1b31461026b578063f2fde38b1461028b578063f7d97577146102ab576100d3565b806306fdde03146100d857806309ce7a301461010357806326a49e3714610125578063369bf53b146101525780634a2911421461017457806351ed8288146101a45780635b4fcd6c146101c457806360ea60b0146101d9575b600080fd5b3480156100e457600080fd5b506100ed6102cb565b6040516100fa91906111b9565b60405180910390f35b34801561010f57600080fd5b5061012361011e366004610fab565b610359565b005b34801561013157600080fd5b5061014561014036600461102f565b6105b2565b6040516100fa919061129b565b34801561015e57600080fd5b506101676105c4565b6040516100fa9190611151565b34801561018057600080fd5b5061019461018f36600461102f565b6105d3565b6040516100fa94939291906112a4565b3480156101b057600080fd5b506101236101bf36600461102f565b610715565b3480156101d057600080fd5b50610167610945565b6101236101e736600461102f565b610954565b3480156101f857600080fd5b50610123610a18565b34801561020d57600080fd5b5061012361021c366004611047565b610a63565b34801561022d57600080fd5b50610145610b79565b34801561024257600080fd5b50610167610b7f565b34801561025757600080fd5b50610167610266366004610f70565b610b8e565b34801561027757600080fd5b50610123610286366004610f11565b610bb4565b34801561029757600080fd5b506101236102a6366004610f11565b610c21565b3480156102b757600080fd5b506101236102c6366004611047565b610c8f565b600280546102d89061138a565b80601f01602080910402602001604051908101604052809291908181526020018280546103049061138a565b80156103515780601f1061032657610100808354040283529160200191610351565b820191906000526020600020905b81548152906001019060200180831161033457829003601f168201915b505050505081565b8260008151116103845760405162461bcd60e51b815260040161037b90611212565b60405180910390fd5b60006001600160a01b031660048260405161039f9190611135565b908152604051908190036020019020546001600160a01b0316146103d55760405162461bcd60e51b815260040161037b90611239565b60008451116103e357600080fd5b60008351116103f157600080fd5b60008251116103ff57600080fd5b3361040957600080fd5b6040805160808101825260018054808352602080840189815284860189905233606086015260009283526003825294909120835181559351805193948594909361045893908501920190610df7565b5060408201518051610474916002840191602090910190610df7565b5060609190910151600390910180546001600160a01b0319166001600160a01b0390921691909117905560405133906004906104b1908890611135565b90815260405190819003602001812080546001600160a01b039384166001600160a01b03199091161790556007546001546334ff261960e21b835292169163d3fc9864916105059133918890600401611189565b600060405180830381600087803b15801561051f57600080fd5b505af1158015610533573d6000803e3d6000fd5b505060018054600090815260056020526040812060001990558154935090915061055c836113c5565b91905055507fb4ed82e058774bc3d46b04e8b39a7b0c74561559085bf3f5e4df8c6d6598a8c5600180546105909190611343565b8686336040516105a394939291906112a4565b60405180910390a15050505050565b60056020526000908152604090205481565b6007546001600160a01b031681565b600360205260009081526040902080546001820180549192916105f59061138a565b80601f01602080910402602001604051908101604052809291908181526020018280546106219061138a565b801561066e5780601f106106435761010080835404028352916020019161066e565b820191906000526020600020905b81548152906001019060200180831161065157829003601f168201915b5050505050908060020180546106839061138a565b80601f01602080910402602001604051908101604052809291908181526020018280546106af9061138a565b80156106fc5780601f106106d1576101008083540402835291602001916106fc565b820191906000526020600020905b8154815290600101906020018083116106df57829003601f168201915b505050600390930154919250506001600160a01b031684565b80806001541161072457600080fd5b600082815260056020526040902054600019141561074157600080fd5b6006546007546040516331a9108f60e11b81526001600160a01b03928316926323b872dd923392911690636352211e9061077f90889060040161129b565b60206040518083038186803b15801561079757600080fd5b505afa1580156107ab573d6000803e3d6000fd5b505050506040513d601f19601f820116820180604052508101906107cf9190610f34565b600086815260056020526040908190205490516001600160e01b031960e086901b16815261080293929190600401611165565b602060405180830381600087803b15801561081c57600080fd5b505af1158015610830573d6000803e3d6000fd5b505050506040513d601f19601f820116820180604052508101906108549190610f50565b506007546040516331a9108f60e11b81526001600160a01b03909116906323b872dd908290636352211e9061088d90879060040161129b565b60206040518083038186803b1580156108a557600080fd5b505afa1580156108b9573d6000803e3d6000fd5b505050506040513d601f19601f820116820180604052508101906108dd9190610f34565b33856040518463ffffffff1660e01b81526004016108fd93929190611165565b600060405180830381600087803b15801561091757600080fd5b505af115801561092b573d6000803e3d6000fd5b505050600092835250506005602052604090206000199055565b6006546001600160a01b031681565b80806001541161096357600080fd5b60008281526003602081905260408083209091015490516001600160a01b03909116913480156108fc02929091818181858888f193505050501580156109ad573d6000803e3d6000fd5b506000828152600360208190526040918290209081015491517f1be5317bca8d3f70dc1efe89958be71bff36cdca33fc00a6423e25eb2f1d492f92610a0c928692600182019260029092019134916001600160a01b03909116906112e9565b60405180910390a15050565b610a20610d44565b6001600160a01b0316610a31610b7f565b6001600160a01b031614610a575760405162461bcd60e51b815260040161037b90611266565b610a616000610d48565b565b818060015411610a7257600080fd5b600654600084815260036020819052604091829020015490516323b872dd60e01b81526001600160a01b03928316926323b872dd92610abb923392909116908790600401611165565b602060405180830381600087803b158015610ad557600080fd5b505af1158015610ae9573d6000803e3d6000fd5b505050506040513d601f19601f82011682018060405250810190610b0d9190610f50565b506000838152600360208190526040918290209081015491517f3cfbac2b8ea0b433c7ede16ebdbb2906cb13b4777b4031f9c6ba7d8aa9fce44e92610b6c928792600182019260029092019188916001600160a01b03909116906112e9565b60405180910390a1505050565b60015481565b6000546001600160a01b031690565b80516020818301810180516004825292820191909301209152546001600160a01b031681565b610bbc610d44565b6001600160a01b0316610bcd610b7f565b6001600160a01b031614610bf35760405162461bcd60e51b815260040161037b90611266565b600780546001600160a01b0319166001600160a01b038381169190911791829055610c1e9116610d98565b50565b610c29610d44565b6001600160a01b0316610c3a610b7f565b6001600160a01b031614610c605760405162461bcd60e51b815260040161037b90611266565b6001600160a01b038116610c865760405162461bcd60e51b815260040161037b906111cc565b610c1e81610d48565b818060015411610c9e57600080fd5b6007546040516331a9108f60e11b815233916001600160a01b031690636352211e90610cce90879060040161129b565b60206040518083038186803b158015610ce657600080fd5b505afa158015610cfa573d6000803e3d6000fd5b505050506040513d601f19601f82011682018060405250810190610d1e9190610f34565b6001600160a01b031614610d3157600080fd5b5060009182526005602052604090912055565b3390565b600080546001600160a01b038381166001600160a01b0319831681178455604051919092169283917f8be0079c531659141344cd1fd0a4f28419497f9722a3daafe3b4186f6b6457e09190a35050565b610c1e81604051602401610dac9190611151565b60408051601f198184030181529190526020810180516001600160e01b031663161765e160e11b17905280516a636f6e736f6c652e6c6f67602083016000808483855afa5050505050565b828054610e039061138a565b90600052602060002090601f016020900481019282610e255760008555610e6b565b82601f10610e3e57805160ff1916838001178555610e6b565b82800160010185558215610e6b579182015b82811115610e6b578251825591602001919060010190610e50565b50610e77929150610e7b565b5090565b5b80821115610e775760008155600101610e7c565b600082601f830112610ea0578081fd5b813567ffffffffffffffff80821115610ebb57610ebb6113f6565b604051601f8301601f191681016020018281118282101715610edf57610edf6113f6565b604052828152848301602001861015610ef6578384fd5b82602086016020830137918201602001929092529392505050565b600060208284031215610f22578081fd5b8135610f2d8161140c565b9392505050565b600060208284031215610f45578081fd5b8151610f2d8161140c565b600060208284031215610f61578081fd5b81518015158114610f2d578182fd5b600060208284031215610f81578081fd5b813567ffffffffffffffff811115610f97578182fd5b610fa384828501610e90565b949350505050565b600080600060608486031215610fbf578182fd5b833567ffffffffffffffff80821115610fd6578384fd5b610fe287838801610e90565b94506020860135915080821115610ff7578384fd5b61100387838801610e90565b93506040860135915080821115611018578283fd5b5061102586828701610e90565b9150509250925092565b600060208284031215611040578081fd5b5035919050565b60008060408385031215611059578182fd5b50508035926020909101359150565b6000815180845261108081602086016020860161135a565b601f01601f19169290920160200192915050565b8054600090600281046001808316806110ae57607f831692505b60208084108214156110ce57634e487b7160e01b86526022600452602486fd5b6110d8848961129b565b8280156110ec57600181146110fd57611128565b60ff19871682528282019750611128565b61110689611337565b60005b8781101561112257815484820152908601908401611109565b83019850505b5050505050505092915050565b6000825161114781846020870161135a565b9190910192915050565b6001600160a01b0391909116815260200190565b6001600160a01b039384168152919092166020820152604081019190915260600190565b600060018060a01b0385168252836020830152606060408301526111b06060830184611068565b95945050505050565b600060208252610f2d6020830184611068565b60208082526026908201527f4f776e61626c653a206e6577206f776e657220697320746865207a65726f206160408201526564647265737360d01b606082015260800190565b6020808252600d908201526c6861736820697320656d70747960981b604082015260600190565b6020808252601390820152726861736820616c72656164792065786973747360681b604082015260600190565b6020808252818101527f4f776e61626c653a2063616c6c6572206973206e6f7420746865206f776e6572604082015260600190565b90815260200190565b6000858252608060208301526112bd6080830186611068565b82810360408401526112cf8186611068565b91505060018060a01b038316606083015295945050505050565b600086825260a0602083015261130260a0830187611094565b82810360408401526113148187611094565b606084019590955250506001600160a01b03919091166080909101529392505050565b60009081526020902090565b600082821015611355576113556113e0565b500390565b60005b8381101561137557818101518382015260200161135d565b83811115611384576000848401525b50505050565b60028104600182168061139e57607f821691505b602082108114156113bf57634e487b7160e01b600052602260045260246000fd5b50919050565b60006000198214156113d9576113d96113e0565b5060010190565b634e487b7160e01b600052601160045260246000fd5b634e487b7160e01b600052604160045260246000fd5b6001600160a01b0381168114610c1e57600080fdfea2646970667358221220aa2a83d1f59aba2a141afdc9afb47035e2d44d5524fb470e97f350382bc3081a64736f6c63430008000033",
  "devdoc": {
    "kind": "dev",
    "methods": {
      "owner()": {
        "details": "Returns the address of the current owner."
      },
      "renounceOwnership()": {
        "details": "Leaves the contract without owner. It will not be possible to call `onlyOwner` functions anymore. Can only be called by the current owner. NOTE: Renouncing ownership will leave the contract without an owner, thereby removing any functionality that is only available to the owner."
      },
      "transferOwnership(address)": {
        "details": "Transfers ownership of the contract to a new account (`newOwner`). Can only be called by the current owner."
      }
    },
    "version": 1
  },
  "userdoc": {
    "kind": "user",
    "methods": {},
    "version": 1
  },
  "storageLayout": {
    "storage": [
      {
        "astId": 7,
        "contract": "contracts/DPix.sol:DPix",
        "label": "_owner",
        "offset": 0,
        "slot": "0",
        "type": "t_address"
      },
      {
        "astId": 2298,
        "contract": "contracts/DPix.sol:DPix",
        "label": "pictureCount",
        "offset": 0,
        "slot": "1",
        "type": "t_uint256"
      },
      {
        "astId": 2301,
        "contract": "contracts/DPix.sol:DPix",
        "label": "name",
        "offset": 0,
        "slot": "2",
        "type": "t_string_storage"
      },
      {
        "astId": 2306,
        "contract": "contracts/DPix.sol:DPix",
        "label": "pictures",
        "offset": 0,
        "slot": "3",
        "type": "t_mapping(t_uint256,t_struct(Picture)2329_storage)"
      },
      {
        "astId": 2310,
        "contract": "contracts/DPix.sol:DPix",
        "label": "hashAuthorMap",
        "offset": 0,
        "slot": "4",
        "type": "t_mapping(t_string_memory_ptr,t_address)"
      },
      {
        "astId": 2314,
        "contract": "contracts/DPix.sol:DPix",
        "label": "price",
        "offset": 0,
        "slot": "5",
        "type": "t_mapping(t_uint256,t_uint256)"
      },
      {
        "astId": 2317,
        "contract": "contracts/DPix.sol:DPix",
        "label": "dpixToken",
        "offset": 0,
        "slot": "6",
        "type": "t_contract(DPixToken)2918"
      },
      {
        "astId": 2320,
        "contract": "contracts/DPix.sol:DPix",
        "label": "dpixNFT",
        "offset": 0,
        "slot": "7",
        "type": "t_contract(DPixNFT)2818"
      }
    ],
    "types": {
      "t_address": {
        "encoding": "inplace",
        "label": "address",
        "numberOfBytes": "20"
      },
      "t_address_payable": {
        "encoding": "inplace",
        "label": "address payable",
        "numberOfBytes": "20"
      },
      "t_contract(DPixNFT)2818": {
        "encoding": "inplace",
        "label": "contract DPixNFT",
        "numberOfBytes": "20"
      },
      "t_contract(DPixToken)2918": {
        "encoding": "inplace",
        "label": "contract DPixToken",
        "numberOfBytes": "20"
      },
      "t_mapping(t_string_memory_ptr,t_address)": {
        "encoding": "mapping",
        "key": "t_string_memory_ptr",
        "label": "mapping(string => address)",
        "numberOfBytes": "32",
        "value": "t_address"
      },
      "t_mapping(t_uint256,t_struct(Picture)2329_storage)": {
        "encoding": "mapping",
        "key": "t_uint256",
        "label": "mapping(uint256 => struct DPix.Picture)",
        "numberOfBytes": "32",
        "value": "t_struct(Picture)2329_storage"
      },
      "t_mapping(t_uint256,t_uint256)": {
        "encoding": "mapping",
        "key": "t_uint256",
        "label": "mapping(uint256 => uint256)",
        "numberOfBytes": "32",
        "value": "t_uint256"
      },
      "t_string_memory_ptr": {
        "encoding": "bytes",
        "label": "string",
        "numberOfBytes": "32"
      },
      "t_string_storage": {
        "encoding": "bytes",
        "label": "string",
        "numberOfBytes": "32"
      },
      "t_struct(Picture)2329_storage": {
        "encoding": "inplace",
        "label": "struct DPix.Picture",
        "members": [
          {
            "astId": 2322,
            "contract": "contracts/DPix.sol:DPix",
            "label": "id",
            "offset": 0,
            "slot": "0",
            "type": "t_uint256"
          },
          {
            "astId": 2324,
            "contract": "contracts/DPix.sol:DPix",
            "label": "hash",
            "offset": 0,
            "slot": "1",
            "type": "t_string_storage"
          },
          {
            "astId": 2326,
            "contract": "contracts/DPix.sol:DPix",
            "label": "title",
            "offset": 0,
            "slot": "2",
            "type": "t_string_storage"
          },
          {
            "astId": 2328,
            "contract": "contracts/DPix.sol:DPix",
            "label": "author",
            "offset": 0,
            "slot": "3",
            "type": "t_address_payable"
          }
        ],
        "numberOfBytes": "128"
      },
      "t_uint256": {
        "encoding": "inplace",
        "label": "uint256",
        "numberOfBytes": "32"
      }
    }
  }
}